:100000000C9467000C948F000C948F000C948F005C
:100010000C948F000C948F000C948F000C948F0024
:100020000C948F000C948F000C948F000C948F0014
:100030000C948F000C948F000C948F000C948F0004
:100040000C9480060C948F000C944E060C94280699
:100050000C948F000C948F000C948F000C948F00E4
:100060000C94CA060C948F0005A84CCDB2D44EB99E
:100070003836A9020C50B9918688083CA6AAAA2A4B
:10008000BE000000803F00000000250028002B007B
:10009000040404040404040402020202020203032E
:1000A0000303030301020408102040800102040836
:1000B00010200102040810200000000800020100C6
:1000C000000304070000000000000000F8071124EE
:1000D0001FBECFEFD8E0DEBFCDBF11E0A0E0B1E0A2
:1000E000EAE0FCE102C005900D92A234B107D9F715
:1000F00022E0A2E4B1E001C01D92AA3BB207E1F701
:1001000010E0C7E6D0E004C02197FE010E94F80D80
:10011000C636D107C9F70E9431080C94030E0C941F
:100120000000382F2091100290910F02213208F028
:1001300049C08091EC018111FCCF42E04093EC0179
:100140003093EB013FEF3093EA011092E9012093E5
:10015000E801AFEEB1E048EC51E0FA013E2F341B6C
:10016000321718F43D913193F9CF1092C7012091C5
:10017000C701990F922B9093C7019091C6019130BE
:1001800061F41092C6019091C7019093BB009091C9
:10019000BC0093FDF8CF95EC01C095EE9093BC00A8
:1001A0009091EC019230E1F39091EA019F3F79F058
:1001B0008091EA01803241F08091EA01803331F090
:1001C00084E005C081E003C082E001C083E01092BA
:1001D000EE01109210021092ED01089590E0FC01E2
:1001E000E854FF4F2491FC01EC55FF4F3491FC0182
:1001F000E057FF4FE491EE23B1F1222339F1233090
:1002000091F038F42130A9F0223001F584B58F7DCA
:1002100012C0273091F02830A1F02430B9F4809139
:1002200080008F7D03C0809180008F778093800055
:100230000DC084B58F7784BD09C08091B0008F77E1
:1002400003C08091B0008F7D8093B000F0E0EE0F8E
:10025000FF1FEA57FF4FA591B4918FB7F894EC9127
:100260003E2B3C938FBF0895CF92DF92EF92FF9287
:100270000F931F93CF93DF936C017A018B01C0E042
:10028000D0E0CE15DF0589F0D8016D918D01D60142
:10029000ED91FC910190F081E02DC6010995892B2B
:1002A00011F47E0102C02196ECCFC701DF91CF91FE
:1002B0001F910F91FF90EF90DF90CF900895FC0178
:1002C000538D448D252F30E0842F90E0821B930BBB
:1002D000541710F0CF96089501970895FC01918D61
:1002E000828D981761F0828DDF01A80FB11D5D9698
:1002F0008C91928D9F5F9F73928F90E008958FEF06
:100300009FEF0895FC01918D828D981731F0828DB9
:10031000E80FF11D858D90E008958FEF9FEF089510
:10032000FC01918D228D892F90E0805C9F4F821B74
:1003300091098F739927089581E192E00E949001BD
:1003400021E0892B09F420E0822F0895FC01848D9F
:10035000DF01A80FB11DA35ABF4F2C91848D90E0EF
:1003600001968F739927848FA689B7892C93A089CA
:10037000B1898C9180648C93938D848D981306C081
:100380000288F389E02D80818F7D80830895EF922C
:10039000FF920F931F93CF93DF93EC0181E0888F3F
:1003A0009B8D8C8D981305C0E889F989808185FD26
:1003B00024C0F62E0B8D10E00F5F1F4F0F73112717
:1003C000E02E8C8DE8120CC00FB607FCFACFE8893E
:1003D000F989808185FFF5CFCE010E94A601F1CF7A
:1003E0008B8DFE01E80FF11DE35AFF4FF0820B8F5A
:1003F000EA89FB898081806207C0EE89FF8960837A
:10040000E889F98980818064808381E090E0DF91D0
:10041000CF911F910F91FF90EF900895CF93DF93AD
:10042000EC01888D8823C9F0EA89FB89808185FDEC
:1004300005C0A889B9898C9186FD0FC00FB607FC4D
:10044000F5CF808185FFF2CFA889B9898C9185FF8E
:10045000EDCFCE010E94A601E7CFDF91CF910895A5
:1004600080E090E0892B29F00E949C0181110C947E
:100470000000089585ED8093BC008091BC0084FD50
:10048000FCCF1092EC01089540918401262F30E0BA
:10049000240F311D21323105DCF42091EC01243090
:1004A000C9F4FC0180E090E0861758F43091840193
:1004B0002191DC01AE59BE4FA30FB11D2C930196C3
:1004C000F3CF80918401680F6093840180E00895E8
:1004D00081E0089582E008950895E091AF01809150
:1004E000AE01E81730F4F0E0EE5BFE4F808190E063
:1004F00008958FEF9FEF08959091AF018091AE0125
:10050000981750F4E92FF0E0EE5BFE4F208130E0C9
:100510009F5F9093AF0102C02FEF3FEFC901089595
:100520008091AE0190E02091AF01821B9109089566
:10053000CF92DF92EF92FF920F931F93CF93DF93AF
:100540007C01262F972F8A018091ED01882391F05D
:10055000C62FD72F6E01C40ED51ECC15DD0571F048
:100560006991D701ED91FC910190F081E02DC701D7
:100570000995F3CF642F822F0E944402C801DF91B6
:10058000CF911F910F91FF90EF90DF90CF90089542
:10059000CF93DF931F92CDB7DEB769832091ED0132
:1005A0002223D1F020911002203240F021E030E0EF
:1005B000FC013383228380E090E015C08091EE013E
:1005C000E82FF0E0E151FE4F998190838F5F809397
:1005D000EE018093100205C061E0CE0101960E94F9
:1005E000440281E090E00F90DF91CF910895CF9386
:1005F000DF93EB0191E09093ED0198E690930F0269
:100600001092EE0110921002682F8EEA92E00E9482
:10061000C80268818EEA92E00E94C80281E0DF9100
:10062000CF910C949100089580E090E008950E948D
:10063000FE0D4F925F926F927F928F929F92AF9238
:10064000BF92CF92DF92EF92FF920F931F93CF93BF
:10065000DF93CDB7DEB7E4970FB6F894DEBF0FBED9
:10066000CDBF9C017B018A01DC018D919D910D9094
:10067000BC91A02D8D839E83AF83B887D90114963A
:100680008D919D910D90BC91A02D8D879E87AF87F8
:10069000B88BD90118968D919D910D90BC91A02D8C
:1006A000898B9A8BAB8BBC8BDB0118968D919D91BE
:1006B0000D90BC91A02D89839A83AB83BC839C0150
:1006C000AD01BC01CD010E94ED0C6D8B7E8B8F8B3B
:1006D000988FF70184849584A684B784A50194013A
:1006E000C501B4010E94ED0C698F7A8F8B8F9C8FAE
:1006F0002D853E854F855889CA01B9010E94140B8A
:100700006D8F7E8F8F8F98A3D70114964D905D903B
:100710006D907C90179729813A814B815C81C30150
:10072000B2010E94ED0C69A37AA38BA39CA3D7010D
:100730008D919D910D90BC91A02D89879A87AB8753
:10074000BC879C01AD01C501B4010E94ED0C6DA3F5
:100750007EA38FA398A729893A894B895C89CA010E
:10076000B9010E94140B69A77AA78BA79CA7A501C2
:100770009401C301B2010E94ED0C6DA77EA78FA763
:1007800098AB29853A854B855C8569817A818B8117
:100790009C810E94ED0C69AB7AAB8BAB9CAB298D35
:1007A0003A8D4B8D5C8D6D897E898F89988D0E94E5
:1007B000140B9B01AC010E94140B9B01AC0160E087
:1007C00070E080E89FE30E94130B9B01AC016D81F8
:1007D0007E818F8198850E94ED0C6B017C012DA19B
:1007E0003EA14FA158A569A17AA18BA19CA10E940D
:1007F000130B9B01AC016D8D7E8D8F8D98A10E9496
:10080000ED0C9B01AC01C701B6010E94140B6B01FA
:100810007C0129A93AA94BA95CA96DA57EA58FA544
:1008200098A90E94140B9B01AC0169A57AA58BA520
:100830009CA50E94ED0C9B01AC01C701B6010E9472
:10084000140BF80160837183828393832D813E8131
:100850004F815885CA01B9010E94140B6D837E83B4
:100860008F839887A3019201C301B2010E94ED0C0E
:100870006B017C01A501940169817A818B819C8146
:100880000E94ED0C4B015C0129853A854B855C8506
:10089000C301B2010E94ED0C69837A838B839C8330
:1008A0002DA13EA14FA158A569A17AA18BA19CA120
:1008B0000E94140B9B01AC016D817E818F81988514
:1008C0000E94ED0C2B013C01298D3A8D4B8D5C8DE6
:1008D000C701B6010E94140B9B01AC010E94140BCE
:1008E0009B01AC0160E070E080E89FE30E94130B85
:1008F0009B01AC016D857E858F8598890E94ED0CEA
:100900009B01AC01C301B2010E94140B2B013C01FD
:1009100029813A814B815C81C501B4010E94130B8E
:100920009B01AC0169A57AA58BA59CA50E94ED0C45
:100930009B01AC01C301B2010E94140BD8011496B3
:100940006D937D938D939C93179729A93AA94BA9F1
:100950005CA96DA57EA58FA598A90E94130B9B018C
:10096000AC016D817E818F8198850E94ED0C2B01F9
:100970003C0129813A814B815C81C501B4010E940F
:10098000140B9B01AC016D8D7E8D8F8D98A10E9403
:10099000ED0C9B01AC01C301B2010E94140B4B0191
:1009A0005C012D893E894F89588DC701B6010E948F
:1009B000140B9B01AC010E94140B9B01AC0160E085
:1009C00070E080E89FE30E94130B9B01AC016989F2
:1009D0007A898B899C890E94ED0C9B01AC01C50131
:1009E000B4010E94140BF801608771878287938796
:1009F000E4960FB6F894DEBF0FBECDBFDF91CF9166
:100A00001F910F91FF90EF90DF90CF90BF90AF902C
:100A10009F908F907F906F905F904F9008954F922E
:100A20005F926F927F928F929F92AF92BF92CF927E
:100A3000DF92EF92FF920F931F93CF93DF9300D03B
:100A400000D0CDB7DEB78B01DC014D905D906D908D
:100A50007C90139714968D909D90AD90BC901797B5
:100A600018968D919D910D90BC91A02D89839A83AC
:100A7000AB83BC83A3019201C301B2010E94ED0CC0
:100A80006B017C01A5019401C501B4010E94ED0C2C
:100A90009B01AC01C701B6010E94140B6B017C01E4
:100AA00029813A814B815C81CA01B9010E94ED0C18
:100AB0009B01AC01C701B6010E94140B0E94680D96
:100AC0006B017C0120E030E0A9010E94800B8823AB
:100AD00029F1A7019601C301B2010E948A0BF80116
:100AE0006083718382839383A7019601C501B4015A
:100AF0000E948A0BD80114966D937D938D939C93DD
:100B00001797A701960169817A818B819C810E9448
:100B10008A0BF8016087718782879387C701B601C6
:100B20000F900F900F900F90DF91CF911F910F9129
:100B3000FF90EF90DF90CF90BF90AF909F908F90FD
:100B40007F906F905F904F900895CF92DF92FF92C9
:100B50000F931F93CF93DF931F92CDB7DEB7F62E7F
:100B60008A0191E09093ED0198E690930F02109224
:100B7000EE0110921002682F8EEA92E079830E94B3
:100B8000C80280E00E94910079818091EC0181117E
:100B9000FCCF802F013208F080E291E09093EC01CD
:100BA0009093EB012FEF2093EA011092E901280FB7
:100BB0002093E8019093C7019091C701906D9093A5
:100BC000C7019091C601913061F41092C6019091D5
:100BD000C7019093BB009091BC0093FDF8CF95ECBA
:100BE00001C095EE9093BC009091EC019130E1F33F
:100BF0009091E901981710F48091E901A8ECB1E017
:100C000022E431E0F9019E2F921B981718F49D9170
:100C10009193F9CF1092AF018093AE01CF2CD72ED4
:100C20000C0D1D1DC016D10641F08EEA92E00E9407
:100C30007C02F60181936F01F5CF81E00F90DF9187
:100C4000CF911F910F91FF90DF90CF900C94910066
:100C50001F920F920FB60F9211242F933F934F9331
:100C60005F936F937F938F939F93AF93BF93EF9314
:100C7000FF9381E192E00E94A601FF91EF91BF9165
:100C8000AF919F918F917F916F915F914F913F9124
:100C90002F910F900FBE0F901F9018951F920F92DB
:100CA0000FB60F9211242F938F939F93EF93FF937F
:100CB000E0912102F09122028081E0912702F091DF
:100CC000280282FD12C0908180912A028F5F8F736B
:100CD00020912B02821751F0E0912A02F0E0EF5EA2
:100CE000FD4F958F80932A0201C08081FF91EF9183
:100CF0009F918F912F910F900FBE0F901F9018957D
:100D00001F920F920FB60F9211242F933F938F9340
:100D10009F93AF93BF938091B0019091B101A09147
:100D2000B201B091B3013091AD0123E0230F2D3713
:100D300020F40196A11DB11D05C026E8230F0296DF
:100D4000A11DB11D2093AD018093B0019093B1011D
:100D5000A093B201B093B3018091A9019091AA012F
:100D6000A091AB01B091AC010196A11DB11D809382
:100D7000A9019093AA01A093AB01B093AC01BF91DC
:100D8000AF919F918F913F912F910F900FBE0F9038
:100D90001F9018951F920F920FB60F9211242F9348
:100DA0003F934F935F936F937F938F939F93AF93F3
:100DB000BF93EF93FF938091B900887F803609F449
:100DC0009CC068F5883209F45BC090F4803109F466
:100DD00054C038F4882309F4F6C0883009F44DC0B3
:100DE000F6C0883109F44CC0803209F45DC0EFC010
:100DF000803409F468C048F4803309F455C088335E
:100E000009F0E5C08093EA01D8C0803509F44FC0ED
:100E1000883509F45DC0883409F0D9C0D6C0883956
:100E200009F4C7C0A8F4883709F467C038F48836D5
:100E300009F463C0803709F460C0C9C0883809F478
:100E4000B8C0803909F45FC0803809F0C0C05BC009
:100E5000803B09F486C038F4803A09F466C0883AC9
:100E600009F47FC0B4C0803C09F4A7C0883C09F4F1
:100E7000A4C0883B09F48AC0AAC08091C70110C0F1
:100E80009091E9018091E801981770F5E091E901EE
:100E900081E08E0F8093E901F0E0E853FE4F8081FE
:100EA0008093BB0085EC86C08093EA018EC0E09100
:100EB000E90181E08E0F8093E9018091BB00F0E0B1
:100EC000E853FE4F80839091E9018091E8016EC064
:100ED000E091E90181E08E0F8093E9018091BB00F0
:100EE000F0E0E853FE4F80838091EB0181116DC0EB
:100EF00081E08093C60184EA61C083E08093EC01C5
:100F00001092A801CFCF8091A801803208F051C083
:100F1000E091A80181E08E0F8093A8018091BB0031
:100F2000F0E0E857FE4F8083BDCF85EC8093BC0096
:100F30001092EC018091A801803230F4E091A80178
:100F4000F0E0E857FE4F10826091A80170E0E09158
:100F50008601F091870188E891E009951092A80137
:100F600036C084E08093EC011092850110928401D8
:100F7000E0918201F09183010995809184018111B2
:100F800005C081E08093840110926201E0918501A7
:100F900081E08E0F80938501F0E0EE59FE4F808155
:100FA0008093BB009091850180918401981708F48B
:100FB00079CF85E88093BC000AC085EC8093BC00A3
:100FC0001092EC0104C01092EA010E943A02FF91D3
:100FD000EF91BF91AF919F918F917F916F915F91B1
:100FE0004F913F912F910F900FBE0F901F9018952A
:100FF000E1E1F2E01382128288EE93E0A0E0B0E03B
:1010000084839583A683B7832CE131E031832083E9
:1010100025EC30E03587248724EC30E037872687BD
:1010200020EC30E0318B208B21EC30E0338B228BB5
:1010300022EC30E0358B248B26EC30E0378B268B8E
:10104000118E128E138E148EEEEAF2E0138212824B
:1010500084839583A683B7838EE291E09183808316
:101060000895CF93DF93CDB7DEB7CD54D1090FB636
:10107000F894DEBF0FBECDBF789484B5826084BD86
:1010800084B5816084BD85B5826085BD85B581608C
:1010900085BD80916E00816080936E00109281000A
:1010A00080918100826080938100809181008160C5
:1010B0008093810080918000816080938000809186
:1010C000B10084608093B1008091B0008160809312
:1010D000B00080917A00846080937A0080917A00D9
:1010E000826080937A0080917A00816080937A0098
:1010F00080917A00806880937A001092C100E0911C
:101100002102F091220282E08083E0911D02F091A1
:101110001E021082E0911F02F09120028FEC80836A
:1011200010922902E0912502F091260286E0808348
:10113000E0912302F0912402808180618083E0911C
:101140002302F0912402808188608083E091230251
:10115000F0912402808180688083E0912302F091E5
:10116000240280818F7D80831092AF011092AE01A6
:101170001092EE01109210021092EC0181E0809327
:10118000EB011092C60182E10E94EE0083E10E9411
:10119000EE008091B9008E7F8093B9008091B900F4
:1011A0008D7F8093B90088E48093B80085E48093B4
:1011B000BC001982BE016F5F7F4F8BE60E94F70271
:1011C0001982BE016F5F7F4F8AE10E94F70288E1BA
:1011D0008983BE016F5F7F4F8BE10E94F70241E080
:1011E00050E0BE016F5F7F4F8BE10E94A5052FB7D6
:1011F000F8948091B0019091B101A091B201B091A9
:10120000B3012FBF8093C0019093C101A093C2018D
:10121000B093C30145E050E06CE371E081E192E0FE
:101220000E9434018091C4019091C5010196909370
:10123000C5018093C40141E050E0BE016F5B7F4F68
:101240008AE30E94A50522968FAD229780FFE8C110
:1012500046E050E0BE01655C7F4F8BE30E94A50530
:1012600046E050E0BE016B5C7F4F83E40E94A50521
:101270008FB7F894C090B001D090B101E090B20166
:10128000F090B3018FBF8091C0019091C101A091F6
:10129000C201B091C301A7019601281B390B4A0B6B
:1012A0005B0BCA01B9010E94FC0B20E030E04AE769
:1012B00054E40E948A0B9B01AC01C092C001D09201
:1012C000C101E092C201F092C3016BAD70E0762FD4
:1012D00066278CAD682B072E000C880B990B2B967C
:1012E0002FAF2B972C963FAF2C972D964FAF2D9766
:1012F0002E965FAF2E970E94FE0B69A77AA78BA749
:101300009CA76DAD70E0762F66278EAD682B072EFB
:10131000000C880B990B0E94FE0B6DA77EA78FA770
:1013200098AB6FAD70E0762F662721968FAD219731
:10133000682B072E000C880B990B0E94FE0B69ABE3
:101340007AAB8BAB9CABBE01675D7F4FCB010E943C
:101350000F056DA970E0762F66278EA9682B655A58
:101360007F4F072E000C880B990B0E94FE0B6D8F90
:101370007E8F8F8F98A36FA970E0762F662788AD38
:10138000682B665B7F4F072E000C880B990B0E9421
:10139000FE0B69A37AA38BA39CA389AD90E0982F41
:1013A00088276AAD862B8F5B9F4FBC01990F880BF6
:1013B000990B0E94FE0B6DA37EA38FA398A7BE017D
:1013C0006F5E7F4FCE014D960E940F052B962FAD7D
:1013D0002B972C963FAD2C972D964FAD2D972E9693
:1013E0005FAD2E970E94ED0C2BED3FE049E450E4F9
:1013F0000E94ED0C20E030E044E353E40E948A0BAD
:1014000023E333E343E851E40E948A0B905820E041
:1014100030E040E05FE30E94ED0C6B017C010E9434
:10142000850B69837A838B839C83C701B6010E94F5
:101430005A0D6B017C019B01AC0169897A898B890A
:101440009C890E94ED0C6D837E838F839887A70112
:1014500096016D897E898F89988D0E94ED0C698730
:101460007A878B879C87A7019601698D7A8D8B8DF2
:101470009C8D0E94ED0C6D877E878F87988B4CE04A
:1014800051E0BE016F5F7F4FCA010E94190340E027
:1014900051E0BE016F5F7F4FCA010E94190326E62B
:1014A00036E646E65FE360910401709105018091A4
:1014B0000601909107010E94ED0C4B015C0126E6AC
:1014C00036E646E65FE3609108017091090180917C
:1014D0000A0190910B010E94ED0C6B017C0120ED43
:1014E0003CEC4CEC5DE36DA57EA58FA598A90E9410
:1014F000ED0C26966CAF7DAF8EAF9FAF269720ED9B
:101500003CEC4CEC5DE369A97AA98BA99CA90E94EB
:10151000ED0C2A966CAF7DAF8EAF9FAF2A9726E673
:1015200036E646E65FE3609100017091010180912B
:101530000201909103010E94ED0C2B013C0120ED72
:101540003CEC4CEC5DE369A57AA58BA59CA50E94BB
:10155000ED0C9B01AC01C301B2010E94140B60931E
:10156000000170930101809302019093030126967C
:101570002CAD3DAD4EAD5FAD2697C501B4010E94C7
:10158000140B6093040170930501809306019093FE
:1015900007012A962CAD3DAD4EAD5FAD2A97C70130
:1015A000B6010E94140B60930801709309018093A7
:1015B0000A0190930B0160E071E0CB010E940F05DE
:1015C0008091000190910101A0910201B09103016D
:1015D0008093BC019093BD01A093BE01B093BF0165
:1015E0008091040190910501A0910601B09107013D
:1015F0008093B8019093B901A093BA01B093BB0155
:101600008091080190910901A0910A01B0910B010C
:101610008093B4019093B501A093B601B093B70144
:101620000E943002F7CD5058BB27AA270E942B0BEF
:101630000C949F0C0E94660C38F00E946D0C20F0F8
:1016400039F49F3F19F426F40C94630C0EF4E095E2
:10165000E7FB0C945D0CE92F0E94C40C58F3BA17F9
:10166000620773078407950720F079F4A6F50C94B8
:10167000E60C0EF4E0950B2EBA2FA02D0B01B9014C
:1016800090010C01CA01A0011124FF27591B99F0F8
:10169000593F50F4503E68F11A16F040A22F232F04
:1016A000342F4427585FF3CF469537952795A79554
:1016B000F0405395C9F77EF41F16BA0B620B730BFB
:1016C000840BBAF09150A1F0FF0FBB1F661F771F6C
:1016D000881FC2F70EC0BA0F621F731F841F48F421
:1016E000879577956795B795F7959E3F08F0B0CFAA
:1016F0009395880F08F09927EE0F97958795089591
:101700000E94390C08F481E008950E94760CE3955C
:101710000C94B00C0E949E0B0C949F0C0E946D0CBC
:1017200058F00E94660C40F029F45F3F29F00C94B9
:101730005D0C51110C94E70C0C94630C0E94C40CCA
:1017400068F39923B1F3552391F3951B550BBB27F0
:10175000AA2762177307840738F09F5F5F4F220F35
:10176000331F441FAA1FA9F335D00E2E3AF0E0E82C
:1017700032D091505040E695001CCAF72BD0FE2F76
:1017800029D0660F771F881FBB1F2617370748070A
:10179000AB07B0E809F0BB0B802DBF01FF279358C2
:1017A0005F4F3AF09E3F510578F00C945D0C0C941D
:1017B000E70C5F3FE4F3983ED4F386957795679501
:1017C000B795F7959F5FC9F7880F911D96958795F7
:1017D00097F90895E1E0660F771F881FBB1F621716
:1017E00073078407BA0720F0621B730B840BBA0BD4
:1017F000EE1F88F7E0950895E89409C097FB3EF442
:1018000090958095709561957F4F8F4F9F4F99234D
:10181000A9F0F92F96E9BB279395F69587957795CB
:101820006795B795F111F8CFFAF4BB0F11F460FF8B
:101830001BC06F5F7F4F8F4F9F4F16C0882311F0E3
:1018400096E911C0772321F09EE8872F762F05C0F7
:10185000662371F096E8862F70E060E02AF09A9592
:10186000660F771F881FDAF7880F9695879597F987
:101870000895990F0008550FAA0BE0E8FEEF161621
:101880001706E807F907C0F012161306E407F50774
:1018900098F0621B730B840B950B39F40A2661F0E8
:1018A000232B242B252B21F408950A2609F4A1408B
:1018B000A6958FEF811D811D089597F99F6780E898
:1018C00070E060E008959FEF80EC089500240A9492
:1018D0001616170618060906089500240A9412160B
:1018E00013061406050608950C94630C0E94CC0C94
:1018F000D8F3E894E0E0BB279F57F0F02AED3FE0F3
:1019000049EC06C0EE0FBB0F661F771F881F28F03B
:10191000B23A62077307840728F0B25A620B730B5E
:10192000840BE3959A9572F7803830F49A95BB0F43
:10193000661F771F881FD2F790480C94AA0D092EB6
:101940000394000C11F4882352F0BB0F40F4BF2B1A
:1019500011F460FF04C06F5F7F4F8F4F9F4F08955A
:10196000EF93E0FF07C0A2EA2AED3FE049EC5FEB0E
:101970000E942B0B0E949F0C0F90039401FC905827
:10198000E8E6F0E00C94BD0D57FD9058440F551F4C
:1019900059F05F3F71F04795880F97FB991F61F0F1
:1019A0009F3F79F087950895121613061406551F68
:1019B000F2CF4695F1DF08C0161617061806991FD4
:1019C000F1CF86957105610508940895E894BB27C9
:1019D00066277727CB0197F908950E94000D0C9494
:1019E0009F0C0E94660C38F00E946D0C20F095232D
:1019F00011F00C945D0C0C94630C11240C94E70C06
:101A00000E94C40C70F3959FC1F3950F50E0551FD1
:101A1000629FF001729FBB27F00DB11D639FAA2743
:101A2000F00DB11DAA1F649F6627B00DA11D661F92
:101A3000829F2227B00DA11D621F739FB00DA11DB3
:101A4000621F839FA00D611D221F749F3327A00D6D
:101A5000611D231F849F600D211D822F762F6A2F09
:101A600011249F5750409AF0F1F088234AF0EE0F6E
:101A7000FF1FBB1F661F771F881F91505040A9F79B
:101A80009E3F510580F00C945D0C0C94E70C5F3F79
:101A9000E4F3983ED4F3869577956795B795F795D7
:101AA000E7959F5FC1F7FE2B880F911D969587954F
:101AB00097F908959F930E94760C0F9007FCEE5FB4
:101AC0000C94B00C19F416F40C94630C0C94A80D3F
:101AD0000E94CC0CB8F39923C9F3B6F39F57550B6A
:101AE00087FF0E94B60D0024A0E640EA90018058CE
:101AF0005695979528F4805C660F771F881F20F015
:101B000026173707480730F4621B730B840B202914
:101B100031294A2BA69517940794202531254A2769
:101B200058F7660F771F881F20F0261737074807DA
:101B300030F4620B730B840B200D311D411DA095F9
:101B400081F7B901842F9158880F9695879508954C
:101B50009F3F31F0915020F4879577956795B79521
:101B6000880F911D9695879597F90895915050404B
:101B7000660F771F881FD2F708959F938F937F93E7
:101B80006F93FF93EF939B01AC010E94ED0CEF91DB
:101B9000FF910E94D10D2F913F914F915F910C9435
:101BA000ED0CDF93CF931F930F93FF92EF92DF9291
:101BB0007B018C01689406C0DA2EEF010E94000DB3
:101BC000FE01E894A5912591359145915591A6F393
:101BD000EF010E942B0BFE019701A801DA9469F72F
:101BE000DF90EF90FF900F911F91CF91DF910895BB
:101BF000EE0FFF1F0590F491E02D099481E090E035
:0A1C0000F8940C94030EF894FFCF43
:101C0A0000000000000000000000803F000000000B
:101C1A00000000000000803F00000000C7013401FE
:101C2A005F010E0290016E01820100000000C802ED
:101C3A00980214036C0290027C026D0268656C6C57
:021C4A006F0029
:00000001FF
